:020000040800F2
:1000000000000220A51700088D15000893150008B0
:10001000991500089F150008A515000800000000AC
:10002000000000000000000000000000AB15000808
:10003000B915000800000000C7150008D515000814
:10004000F5170008F5170008F5170008F517000860
:10005000F5170008F5170008F5170008F517000850
:10006000F5170008F5170008F5170008F517000840
:10007000F5170008F5170008F5170008F517000830
:10008000E1150008F5170008F5170008F517000836
:10009000F5170008F5170008F5170008F517000810
:1000A000F5170008F5170008F5170008F517000800
:1000B000F5170008F5170008F5170008F5170008F0
:1000C000F5170008F5170008F5170008F5170008E0
:1000D000F5170008F5170008F5170008F5170008D0
:1000E000F5170008F5170008F5170008F5170008C0
:1000F000F5170008F5170008F5170008F5170008B0
:10010000F5170008F5170008F5170008F51700089F
:10011000F5170008F5170008F5170008F51700088F
:10012000F5170008F5170008F5170008F51700087F
:10013000F5170008F5170008F5170008F51700086F
:10014000F5170008F5170008F5170008F51700085F
:10015000F5170008F5170008F5170008F51700084F
:10016000F5170008F5170008F5170008F51700083F
:10017000F5170008F5170008F51700080000000043
:08018000F5170008F51700084F
:10019000034613F8012B002AFBD1181A01387047C7
:1001A00001F0FF01102A2BDB10F0070F08D010F828
:1001B000013B013A8B422DD010F0070F42B3F6D12C
:1001C000F0B441EA012141EA014122F007047FF045
:1001D00000070023F0E80256083C85EA010586EA9C
:1001E000010685FA47F5A3FA87F586FA47F6A5FAD8
:1001F00087F68EB9EED1F0BC01F0FF0102F00702E4
:1002000032B110F8013B013A83EA010313B1F8D18E
:100210000020704701387047002D06BF354603386F
:10022000073815F0010F07D1013015F4807F02BFA8
:10023000013015F4C03F0130F0BC0138704700BFF9
:1002400081F0004102E000BF83F0004330B54FEA87
:1002500041044FEA430594EA050F08BF90EA020FF4
:100260001FBF54EA000C55EA020C7FEA645C7FEA87
:10027000655C00F0E2804FEA5454D4EB5555B8BFAA
:100280006D420CDD2C4480EA020281EA030382EA1B
:10029000000083EA010180EA020281EA0303362DAD
:1002A00088BF30BD11F0004F4FEA01314FF4801C80
:1002B0004CEA113102D0404261EB410113F0004F92
:1002C0004FEA03334CEA133302D0524263EB430349
:1002D00094EA050F00F0A780A4F10104D5F1200EE7
:1002E0000DDB02FA0EFC22FA05F2801841F1000142
:1002F00003FA0EF2801843FA05F359410EE0A5F116
:1003000020050EF1200E012A03FA0EFC28BF4CF046
:10031000020C43FA05F3C01851EBE37101F00045FC
:1003200007D54FF0000EDCF1000C7EEB00006EEB09
:100330000101B1F5801F1BD3B1F5001F0CD3490893
:100340005FEA30004FEA3C0C04F101044FEA4452EA
:1003500012F5800F80F09A80BCF1004F08BF5FEA71
:10036000500C50F1000041EB045141EA050130BD51
:100370005FEA4C0C404141EB0101013C28BFB1F563
:10038000801FE9D291F0000F04BF01460020B1FAAE
:1003900081F308BF2033A3F10B03B3F120020CDA81
:1003A0000C3208DD02F1140CC2F10C0201FA0CF05F
:1003B00021FA02F10CE002F11402D8BFC2F1200CC4
:1003C00001FA02F120FA0CFCDCBF41EA0C0190407A
:1003D000E41AA2BF01EB0451294330BD6FEA0404C3
:1003E0001F3C1CDA0C340EDC04F11404C4F12002AE
:1003F00020FA04F001FA02F340EA030021FA04F3C0
:1004000045EA030130BDC4F10C04C4F1200220FA16
:1004100002F001FA04F340EA0300294630BD21FA54
:1004200004F0294630BD94F0000F83F4801306BF1A
:1004300081F480110134013D4EE77FEA645C18BF0E
:100440007FEA655C29D094EA050F08BF90EA020FA5
:1004500005D054EA000C04BF1946104630BD91EA9D
:10046000030F1EBF0021002030BD5FEA545C05D1A0
:100470004000494128BF41F0004130BD14F58004DF
:100480003CBF01F5801130BD01F0004545F0FE4153
:1004900041F470014FF0000030BD7FEA645C1ABF88
:1004A000194610467FEA655C1CBF0B46024650EABF
:1004B000013406BF52EA033591EA030F41F40021EB
:1004C00030BD00BF90F0000F04BF0021704730B571
:1004D0004FF4806404F132044FF000054FF0000146
:1004E00050E700BF90F0000F04BF0021704730B507
:1004F0004FF4806404F1320410F0004548BF4042DC
:100500004FF000013EE700BF42004FEAE2014FEA30
:1005100031014FEA02701FBF12F07F4393F07F4F0B
:1005200081F06051704732F07F4208BF704793F00E
:100530007F4F04BF41F40021704730B54FF4607421
:1005400001F0004521F000411CE700BF50EA010224
:1005500008BF704730B54FF000050AE050EA0102CD
:1005600008BF704730B511F0004502D5404261EB3D
:1005700041014FF4806404F132045FEA915C3FF47E
:10058000D8AE4FF003025FEADC0C18BF03325FEA1B
:10059000DC0C18BF033202EBDC02C2F1200300FACC
:1005A00003FC20FA02F001FA03FE40EA0E0021FAF1
:1005B00002F11444BDE600BF70B54FF0FF0C4CF4DF
:1005C000E06C1CEA11541DBF1CEA135594EA0C0F91
:1005D00095EA0C0F00F0DEF82C4481EA030621EACC
:1005E0004C5123EA4C5350EA013518BF52EA033507
:1005F00041F4801143F4801338D0A0FB02CE4FF0B9
:100600000005E1FB02E506F00042E0FB03E54FF0E8
:100610000006E1FB03569CF0000F18BF4EF0010EE0
:10062000A4F1FF04B6F5007F64F5407404D25FEADC
:100630004E0E6D4146EB060642EAC62141EA55518F
:100640004FEAC52040EA5E504FEACE2EB4F1FD0CD1
:1006500088BFBCF5E06F1ED8BEF1004F08BF5FEA4F
:10066000500E50F1000041EB045170BD06F0004601
:1006700046EA010140EA020081EA0301B4EB5C04AE
:10068000C2BFD4EB0C0541EA045170BD41F48011A6
:100690004FF0000E013C00F3AB8014F1360FDEBFCB
:1006A000002001F0004170BDC4F10004203C35DAA7
:1006B0000C341BDC04F11404C4F1200500FA05F32A
:1006C00020FA04F001FA05F240EA020001F00042CB
:1006D00021F0004110EBD37021FA04F642EB060141
:1006E0005EEA430E08BF20EAD37070BDC4F10C046B
:1006F000C4F1200500FA04F320FA05F001FA04F22F
:1007000040EA020001F0004110EBD37041F100011A
:100710005EEA430E08BF20EAD37070BDC4F1200525
:1007200000FA05F24EEA020E20FA04F301FA05F28D
:1007300043EA020321FA04F001F0004121FA04F235
:1007400020EA020000EBD3705EEA430E08BF20EA05
:10075000D37070BD94F0000F0FD101F0004640003F
:1007600041EB010111F4801F08BF013CF7D041EAC1
:10077000060195F0000F18BF704703F000465200C5
:1007800043EB030313F4801F08BF013DF7D043EA96
:100790000603704794EA0C0F0CEA135518BF95EA4C
:1007A0000C0F0CD050EA410618BF52EA4306D1D1D3
:1007B00081EA030101F000414FF0000070BD50EAF2
:1007C000410606BF1046194652EA430619D094EA7C
:1007D0000C0F02D150EA013613D195EA0C0F05D166
:1007E00052EA03361CBF104619460AD181EA0301BA
:1007F00001F0004141F0FE4141F470014FF0000072
:1008000070BD41F0FE4141F4780170BD70B54FF00C
:10081000FF0C4CF4E06C1CEA11541DBF1CEA13558C
:1008200094EA0C0F95EA0C0F00F0A7F8A4EB05046E
:1008300081EA030E52EA03354FEA013100F0888065
:100840004FEA03334FF0805545EA131343EA12632E
:100850004FEA022245EA111545EA10654FEA0026E3
:100860000EF000419D4208BF964244F1FD0404F59C
:10087000407402D25B084FEA3202B61A65EB0305F8
:100880005B084FEA32024FF480104FF4002CB6EBB5
:10089000020E75EB030E22BFB61A754640EA0C0035
:1008A0005B084FEA3202B6EB020E75EB030E22BF75
:1008B000B61A754640EA5C005B084FEA3202B6EBB6
:1008C000020E75EB030E22BFB61A754640EA9C0075
:1008D0005B084FEA3202B6EB020E75EB030E22BF45
:1008E000B61A754640EADC0055EA060E18D04FEA03
:1008F000051545EA16754FEA06164FEAC30343EAA3
:1009000052734FEAC2025FEA1C1CC0D111F4801F6F
:100910000BD141EA00014FF000004FF0004CB6E768
:1009200011F4801F04BF01430020B4F1FD0C88BF07
:10093000BCF5E06F3FF6AFAEB5EB030C04BFB6EB12
:10094000020C5FEA500C50F1000041EB045170BD05
:100950000EF0004E4EEA113114EB5C04C2BFD4EB32
:100960000C0541EA045170BD41F480114FF0000EB6
:10097000013C90E645EA060E8DE60CEA135594EA32
:100980000C0F08BF95EA0C0F3FF43BAF94EA0C0F35
:100990000AD150EA01347FF434AF95EA0C0F7FF4AA
:1009A00025AF104619462CE795EA0C0F06D152EAFE
:1009B00003353FF4FDAE1046194622E750EA4106E2
:1009C00018BF52EA43067FF4C5AE50EA41047FF4F3
:1009D0000DAF52EA43057FF4EBAE12E74FF0FF3C58
:1009E00006E000BF4FF0010C02E000BF4FF0010C29
:1009F0004DF804CD4FEA410C7FEA6C5C4FEA430CA2
:100A000018BF7FEA6C5C1BD001B050EA410C0CBFF0
:100A100052EA430C91EA030F02BF90EA020F002052
:100A2000704710F1000F91EA030F58BF994208BFB9
:100A300090422CBFD8176FEAE37040F00100704776
:100A40004FEA410C7FEA6C5C02D150EA013C07D1CD
:100A50004FEA430C7FEA6C5CD6D152EA033CD3D018
:100A60005DF8040B704700BF8446104662468C4612
:100A70001946634600E000BF01B5FFF7B7FF002845
:100A800048BF10F1000F01BD4DF808EDFFF7F4FF6E
:100A90000CBF012000205DF808FB00BF4DF808EDF9
:100AA000FFF7EAFF34BF012000205DF808FB00BF1C
:100AB0004DF808EDFFF7E0FF94BF012000205DF83E
:100AC00008FB00BF4DF808EDFFF7CEFF94BF0120F3
:100AD00000205DF808FB00BF4DF808EDFFF7C4FFEC
:100AE00034BF012000205DF808FB00BF4FEA410C35
:100AF0007FEA6C5C02D150EA013C0AD14FEA430C18
:100B00007FEA6C5C02D152EA033C02D14FF0000054
:100B100070474FF0010070474FEA410212F5001292
:100B200015D211D56FF47873B3EB625212D94FEA34
:100B3000C12343F0004343EA505311F0004F23FA1E
:100B400002F018BF404270474FF00000704750EA73
:100B5000013005D111F0004008BF6FF00040704730
:100B60004FF00000704700BF4A0011D212F500128A
:100B700011D20DD56FF47873B3EB62520ED44FEAF5
:100B8000C12343F0004343EA505323FA02F0704775
:100B90004FF00000704750EA013002D14FF0FF30B3
:100BA00070474FF0000070474FEA4102B2F1E04356
:100BB00024BFB3F5001CDCF1FE5C0DD901F0004C44
:100BC0004FEAC0024CEA5070B2F1004F40EB830094
:100BD00008BF20F00100704711F0804F21D113F1C0
:100BE0003872BCBF01F00040704741F480114FEAF9
:100BF0005252C2F11802C2F1200C10FA0CF320FA82
:100C000002F018BF40F001004FEAC1234FEAD3239E
:100C100003FA0CFC40EA0C0023FA02F34FEA430308
:100C2000CCE77FEA625307D150EA01331EBF4FF091
:100C3000FE4040F44000704701F0004040F0FE40AC
:100C400040F40000704700BF53B94AB9002908BFFB
:100C500000281CBF4FF0FF314FF0FF3000F0AAB961
:100C6000ADF1080C6DE904CE00F03CF8DDF804E0CD
:100C7000DDE9022304B0704738B5002200230446A2
:100C80000D46FFF70BFF28B920462946BDE838403E
:100C900000F00AB8204605F1004100F005F8404296
:100CA00061EB410138BD00BFD0B50C4B00220646B8
:100CB0000F46FFF781FCFFF757FF0446FFF702FCE2
:100CC000074B0022FFF778FC02460B4630463946B8
:100CD000FFF7BAFAFFF748FF2146D0BD0000F03D0C
:100CE0000000F0412DE9F047089D04468E46002B98
:100CF0004DD18A42944669D9B2FA82F252B101FAD0
:100D000002F3C2F1200120FA01F10CFA02FC41EADF
:100D1000030E94404FEA1C48210CBEFBF8F61FFA64
:100D20008CF708FB16E341EA034306FB07F19942FF
:100D30000AD91CEB030306F1FF3080F01F819942B2
:100D400040F21C81023E63445B1AA4B2B3FBF8F08C
:100D500008FB103344EA034400FB07F7A7420AD913
:100D60001CEB040400F1FF3380F00A81A74240F23B
:100D700007816444023840EA0640E41B00261DB1A6
:100D8000D4400023C5E900433146BDE8F0878B42DB
:100D900009D9002D00F0EF800026C5E9000130469A
:100DA0003146BDE8F087B3FA83F6002E4AD18B4274
:100DB00002D3824200F2F980841A61EB030301201E
:100DC0009E46002DE0D0C5E9004EDDE702B9FFDE0A
:100DD000B2FA82F2002A40F09280A1EB0C014FEAB5
:100DE0001C471FFA8CFE0126200CB1FBF7F307FB12
:100DF000131140EA01410EFB03F0884208D91CEBB5
:100E0000010103F1FF3802D2884200F2CB80434651
:100E1000091AA4B2B1FBF7F007FB101144EA014430
:100E20000EFB00FEA64508D91CEB040400F1FF31BF
:100E300002D2A64500F2BB800846A4EB0E0440EAAD
:100E400003409CE7C6F12007B34022FA07FC4CEAB6
:100E5000030C20FA07F401FA06F31C43F9404FEAA9
:100E60001C4900FA06F3B1FBF9F8200C1FFA8CFEBE
:100E700009FB181140EA014108FB0EF0884202FA12
:100E800006F20BD91CEB010108F1FF3A80F08880D3
:100E9000884240F28580A8F102086144091AA4B290
:100EA000B1FBF9F009FB101144EA014100FB0EFE11
:100EB0008E4508D91CEB010100F1FF346CD28E4540
:100EC0006AD90238614440EA0840A0FB0294A1EBD1
:100ED0000E01A142C846A64656D353D05DB1B3EB2E
:100EE000080261EB0E0101FA07F722FA06F3F1405E
:100EF0001F43C5E9007100263146BDE8F087C2F105
:100F00002003D8400CFA02FC21FA03F3914001437C
:100F10004FEA1C471FFA8CFEB3FBF7F007FB1036B5
:100F20000B0C43EA064300FB0EF69E4204FA02F461
:100F300008D91CEB030300F1FF382FD29E422DD9B4
:100F4000023863449B1B89B2B3FBF7F607FB1633E9
:100F500041EA034106FB0EF38B4208D91CEB010169
:100F600006F1FF3816D28B4214D9023E6144C91AE9
:100F700046EA004638E72E46284605E70646E3E6F9
:100F80001846F8E64B45A9D2B9EB020864EB0C0E03
:100F90000138A3E74646EAE7204694E74046D1E712
:100FA000D0467BE7023B614432E7304609E76444C0
:100FB000023842E7704700BF80B483B000AF78606A
:100FC000044B01221A7000BF0C37BD465DF8047B4C
:100FD000704700BFE021002080B582B000AF78608C
:100FE000064B02221A704FF400620549054801F0D1
:100FF0000FFC00BF0837BD4680BD00BFE0210020C8
:10100000E0010020E421002080B582B000AF002381
:101010007B600C4B1B6B0B4A43F400131363094BAF
:101020001B6B03F400137B607B68002200211020FF
:1010300000F053FD102000F06CFD00BF0837BD46E6
:1010400080BD00BF0038024080B58AB000AF07F114
:10105000140300221A605A609A60DA601A61002351
:101060003B612A4B1B6B294A43F004031363274B54
:101070001B6B03F004033B613B690023FB60234BC4
:101080001B6B224A43F080031363204B1B6B03F05E
:101090008003FB60FB680023BB601C4B1B6B1B4A7F
:1010A00043F001031363194B1B6B03F00103BB6097
:1010B000BB6800237B60154B1B6B144A43F008038D
:1010C0001363124B1B6B03F008037B607B680023E8
:1010D0003B600E4B1B6B0D4A43F0020313630B4B3B
:1010E0001B6B03F002033B603B684FF400537B61D2
:1010F0000023BB610023FB6107F114031946044878
:1011000001F092F800BF2837BD4680BD003802408C
:101110000008024080B500AF134B144A1A60124B0E
:101120004FF400725A60104B00229A600E4B00225E
:10113000DA600D4B00221A610B4B4AF644425A61A9
:10114000094B00229A61084B0022DA61064B01220A
:101150001A62054801F01CFA0346002B01D000F08A
:101160004FF900BF80BD00BFE4210020003C0040DB
:1011700080B58EB000AF786007F1240300221A60BA
:101180005A609A60DA601A6107F1140300221A604B
:101190005A609A60DA607B681B68554A934240F057
:1011A000A38001237B613223BB610223FB6107F132
:1011B0001403184602F09EFB0346002B01D000F0FA
:1011C0001FF900233B614B4B1B6C4A4A43F400431D
:1011D0001364484B1B6C03F400433B613B690023E1
:1011E000FB60444B1B6B434A43F001031363414BC9
:1011F0001B6B03F00103FB60FB680023BB603D4BEE
:101200001B6B3C4A43F0020313633A4B1B6B03F026
:101210000203BB60BB6810237B620223BB62002316
:10122000FB6200233B6306237B6307F1240319461B
:10123000314800F0F9FF28237B620223BB620023C0
:10124000FB6200233B6306237B6307F124031946FB
:101250002A4800F0E9FF10237B620223BB620023CF
:10126000FB6200233B6307237B6307F124031946DA
:10127000224800F0D9FF224B224A1A60204B00225C
:101280005A601F4B40229A601D4B0022DA601C4BB3
:101290004FF480621A611A4B4FF400625A61184B86
:1012A0004FF400529A61164B4FF48072DA61144B7E
:1012B00000221A62124B04225A62114B03229A62D4
:1012C0000F4B0022DA620E4B00221A630C4800F02A
:1012D0003BFC0346002B01D000F092F87B68084AE3
:1012E0009A63074A7B68936300BF3837BD4680BD69
:1012F000003C004000380240000002400004024070
:101300002C2200208860024080B500AF00F074FA03
:1013100000F00CF8FFF798FEFFF776FEFFF7FAFEF5
:1013200000F074F804F036FBFEE7000080B594B0DE
:1013300000AF07F1200330220021184604F07EFDA3
:1013400007F10C0300221A605A609A60DA601A6191
:101350000023BB60284B1B6C274A43F08053136467
:10136000254B1B6C03F08053BB60BB6800237B6084
:10137000224B1B68214A43F4804313601F4B1B68B8
:1013800003F480437B607B6802233B620123FB62A2
:1013900010233B630223BB630023FB6308233B64EE
:1013A000A8237B640223BB640723FB6407F12003AB
:1013B000184601F07BFE0346002B01D000F020F818
:1013C0000F23FB6002233B6100237B614FF4A0539A
:1013D000BB614FF48053FB6107F10C0305211846F4
:1013E00002F0DCF80346002B01D000F009F800BF42
:1013F0005037BD4680BD00BF00380240007000403D
:1014000080B400AF72B600BFFEE7000080B500AF49
:10141000144B154A1A60134B00225A60114B0022DC
:101420009A60104B0022DA600E4B00221A610D4BBD
:1014300000225A610B4B00229A610A4802F09CFB81
:101440000346002B01D0FFF7DBFF4FF40061054896
:1014500003F07EF90346002B01D0FFF7D1FF00BF58
:1014600080BD00BF8C220020002C014080B58AB0D6
:1014700000AF786007F1140300221A605A609A6086
:10148000DA601A617B681B68284A93424AD10023BC
:101490003B61274B5B6C264A43F400635364244B47
:1014A0005B6C03F400633B613B690023FB60204BF2
:1014B0001B6B1F4A43F0040313631D4B1B6B03F0AC
:1014C0000403FB60FB680023BB60194B1B6B184ACD
:1014D00043F008031363164B1B6B03F00803BB6058
:1014E000BB684FF4F8537B610223BB610023FB61AF
:1014F00003233B620C237B6207F1140319460D485A
:1015000000F092FE04237B610223BB610023FB6198
:1015100003233B620C237B6207F114031946064840
:1015200000F082FE00BF2837BD4680BD002C014080
:101530000038024000080240000C024080B483B032
:1015400000AF00237B60104B5B6C0F4A43F4804379
:1015500053640D4B5B6C03F480437B607B6800231A
:101560003B60094B1B6C084A43F080531364064BE5
:101570001B6C03F080533B603B6800BF0C37BD46DB
:101580005DF8047B704700BF0038024080B400AFB4
:10159000FEE780B400AFFEE780B400AFFEE780B4A2
:1015A00000AFFEE780B400AFFEE780B400AF00BF3D
:1015B000BD465DF8047B704780B400AF00BFBD46F8
:1015C0005DF8047B704780B400AF00BFBD465DF896
:1015D000047B704780B500AF00F060F900BF80BDAC
:1015E00080B500AF024800F0B5FB00BF80BD00BF72
:1015F0002C22002080B400AF01231846BD465DF8C0
:10160000047B704780B582B000AF7860396004F029
:10161000D9FB034616221A604FF0FF3318460837ED
:10162000BD4680BD80B582B000AF78604FF0FF311D
:101630007868FFF7E7FFFEE780B586B000AFF86097
:10164000B9607A6000237B610AE0AFF30080014655
:10165000BB685A1CBA60CAB21A707B6901337B61DD
:101660007A697B689A42F0DB7B6818461837BD467A
:1016700080BD80B586B000AFF860B9607A600023A5
:101680007B6109E0BB685A1CBA601B781846AFF34F
:1016900000807B6901337B617A697B689A42F1DB68
:1016A0007B6818461837BD4680BD80B483B000AF54
:1016B00078604FF0FF3318460C37BD465DF8047B69
:1016C000704780B483B000AF786039603B684FF4F6
:1016D00000525A60002318460C37BD465DF8047B63
:1016E000704780B483B000AF7860012318460C3790
:1016F000BD465DF8047B704780B485B000AFF860EC
:10170000B9607A60002318461437BD465DF8047B43
:101710007047000080B586B000AF7860144A154B62
:10172000D31A7B617B693B61134B1B68002B02D191
:10173000114B124A1A60104B1A687B6813443A69BD
:101740009A4207D204F03EFB03460C221A604FF087
:10175000FF3309E0084B1B68FB60074B1A687B6886
:101760001344054A1360FB6818461837BD4680BD10
:10177000000002200004000010230020402300206D
:1017800080B400AF064BD3F88830054A43F47003A9
:10179000C2F8883000BFBD465DF8047B704700BFCB
:1017A00000ED00E0DFF834D00D480E490E4A00236A
:1017B00002E0D458C4500433C4188C42F9D30B4A05
:1017C0000B4C002301E013600432A242FBD3FFF76D
:1017D000D7FF04F00FFBFFF797FD704700000220D2
:1017E00000000020E0010020B4AB0008E001002070
:1017F0003C230020FEE7000080B500AF0E4B1B68C5
:101800000D4A43F4007313600B4B1B680A4A43F400
:1018100080631360084B1B68074A43F480731360AE
:10182000032000F04FF90F2000F008F8FFF786FEC4
:101830000023184680BD00BF003C024080B582B046
:1018400000AF7860124B1A68124B1B7819464FF4A0
:101850007A73B3FBF1F3B2FBF3F3184600F067F9C8
:101860000346002B01D001230EE07B680F2B0AD822
:10187000002279684FF0FF3000F02FF9064A7B68AC
:101880001360002300E0012318460837BD4680BDE1
:1018900000000020080000200400002080B400AFF9
:1018A000064B1B781A46064B1B681344044A136008
:1018B00000BFBD465DF8047B704700BF08000020F4
:1018C0001423002080B400AF034B1B681846BD46AC
:1018D0005DF8047B704700BF1423002080B584B0FE
:1018E00000AF7860FFF7EEFFB8607B68FB60FB68D5
:1018F000B3F1FF3F05D00A4B1B781A46FB6813442F
:10190000FB6000BFFFF7DEFF0246BB68D31AFA6830
:101910009A42F7D800BF00BF1037BD4680BD00BF58
:101920000800002080B485B000AF78607B6803F0C9
:101930000703FB600C4BDB68BB60BA684FF6FF0324
:101940001340BB60FB681A02BB68134343F0BF63DC
:1019500043F40033BB60044ABB68D36000BF143754
:10196000BD465DF8047B704700ED00E080B400AF39
:10197000044BDB681B0A03F007031846BD465DF8FD
:10198000047B704700ED00E080B483B000AF0346F5
:10199000FB7197F90730002B0BDBFB7903F01F027B
:1019A000074997F907305B09012000FA02F241F874
:1019B000232000BF0C37BD465DF8047B704700BF95
:1019C00000E100E080B483B000AF03463960FB71F2
:1019D00097F90730002B0ADB3B68DAB20C4997F91C
:1019E00007301201D2B20B4483F800230AE03B68AF
:1019F000DAB20849FB7903F00F03043B1201D2B2BB
:101A00000B441A7600BF0C37BD465DF8047B704767
:101A100000E100E000ED00E080B489B000AFF860C4
:101A2000B9607A60FB6803F00703FB61FB69C3F1EF
:101A30000703042B28BF0423BB61FB690433062B77
:101A400002D9FB69033B00E000237B614FF0FF32CA
:101A5000BB6902FA03F3DA43BB681A407B699A4018
:101A60004FF0FF317B6901FA03F3D9437B680B40E8
:101A7000134318462437BD465DF8047B70470000C9
:101A800080B582B000AF78607B68013BB3F1807FA6
:101A900001D301230FE00A4A7B68013B53600F2109
:101AA0004FF0FF30FFF78EFF054B00229A60044B8A
:101AB00007221A60002318460837BD4680BD00BFC4
:101AC00010E000E080B582B000AF78607868FFF782
:101AD00029FF00BF0837BD4680BD80B586B000AF86
:101AE0000346B9607A60FB7300237B61FFF73EFF1A
:101AF00078617A68B9687869FFF78EFF024697F9CE
:101B00000F3011461846FFF75DFF00BF1837BD467E
:101B100080BD80B582B000AF0346FB7197F90730F6
:101B20001846FFF731FF00BF0837BD4680BD80B5BE
:101B300082B000AF78607868FFF7A2FF03461846CE
:101B40000837BD4680BD000080B586B000AF786024
:101B500000237B61FFF7B6FE38617B68002B01D163
:101B6000012399E07B68022283F835207B680022FC
:101B700083F834207B681B681A687B681B6822F036
:101B800001021A600FE0FFF79DFE02463B69D31A7F
:101B9000052B08D97B6820225A657B68032283F8CD
:101BA0003520032378E07B681B681B6803F0010382
:101BB000002BE8D17B681B681B687B617A69384B16
:101BC00013407B617B685A687B689B681A437B681B
:101BD000DB681A437B681B691A437B685B691A439D
:101BE0007B689B691A437B68DB691A437B681B6AC5
:101BF00013437A6913437B617B685B6A042B07D1CB
:101C00007B68DA6A7B681B6B13437A6913437B61D9
:101C10007B681B687A691A607B681B685B697B61FB
:101C20007B6923F007037B617B685B6A7A691343F6
:101C30007B617B685B6A042B17D17B689B6A7A693E
:101C400013437B617B68DB6A002B0ED0786800F061
:101C50006FFA0346002B08D07B6840225A657B68E8
:101C6000012283F83520012316E07B681B687A691E
:101C70005A61786800F026FA0346FB607B68DB6DEA
:101C80003F229A40FB689A607B6800225A657B6815
:101C9000012283F83520002318461837BD4680BD41
:101CA0003F8010F080B586B000AFF860B9607A6010
:101CB0003B600023FB75FB689B6D3B61FB6893F801
:101CC0003430012B01D1022340E0FB68012283F86C
:101CD0003420FB6893F83530DBB2012B2FD1FB6841
:101CE000022283F83520FB6800225A653B687A6837
:101CF000B968F86800F0B8F9FB68DB6D3F229A40DC
:101D00003B699A60FB681B681A68FB681B6842F0B5
:101D100016021A60FB681B6C002B07D0FB681B685F
:101D20001A68FB681B6842F008021A60FB681B68AF
:101D30001A68FB681B6842F001021A6005E0FB6844
:101D4000002283F834200223FB75FB7D18461837E8
:101D5000BD4680BD80B586B000AF78600023BB6013
:101D60008E4B1B688E4AA2FB03239B0A7B617B6818
:101D70009B6D3B613B691B68FB607B68DB6D0822E8
:101D80009A40FB681340002B1AD07B681B681B68C5
:101D900003F00403002B13D07B681B681A687B6870
:101DA0001B6822F004021A607B68DB6D08229A40EF
:101DB0003B699A607B685B6D43F001027B685A6502
:101DC0007B68DB6D01229A40FB681340002B12D028
:101DD0007B681B685B6903F08003002B0BD07B687A
:101DE000DB6D01229A403B699A607B685B6D43F032
:101DF00002027B685A657B68DB6D04229A40FB68AF
:101E00001340002B12D07B681B681B6803F0020391
:101E1000002B0BD07B68DB6D04229A403B699A60F3
:101E20007B685B6D43F004027B685A657B68DB6D01
:101E300010229A40FB681340002B43D07B681B683C
:101E40001B6803F00803002B3CD07B68DB6D10227D
:101E50009A403B699A607B681B681B6803F4802387
:101E6000002B18D07B681B681B6803F40023002B31
:101E700008D17B681B6C002B24D07B681B6C7868B6
:101E800098471FE07B689B6C002B1BD07B689B6C8A
:101E90007868984716E07B681B681B6803F48073BA
:101EA000002B07D17B681B681A687B681B6822F0CF
:101EB00008021A607B681B6C002B03D07B681B6CCC
:101EC000786898477B68DB6D20229A40FB68134056
:101ED000002B00F08F807B681B681B6803F01003E9
:101EE000002B00F087807B68DB6D20229A403B69E5
:101EF0009A607B6893F83530DBB2052B36D17B686E
:101F00001B681A687B681B6822F016021A607B68DF
:101F10001B685A697B681B6822F080025A617B68E3
:101F20001B6C002B03D17B689B6C002B07D07B685C
:101F30001B681A687B681B6822F008021A607B68BD
:101F4000DB6D3F229A403B699A607B68012283F8EF
:101F500035207B68002283F834207B681B6D002BC2
:101F60007ED07B681B6D7868984779E07B681B683A
:101F70001B6803F48023002B1DD07B681B681B6843
:101F800003F40023002B0DD17B685B6C002B31D058
:101F90007B685B6C786898472CE000BF00000020ED
:101FA000B5814E1B7B68DB6B002B23D07B68DB6B22
:101FB000786898471EE07B681B681B6803F4807391
:101FC000002B0FD17B681B681A687B681B6822F0A6
:101FD00010021A607B68012283F835207B6800229A
:101FE00083F834207B68DB6B002B03D07B68DB6BD2
:101FF000786898477B685B6D002B32D07B685B6D9F
:1020000003F00103002B22D07B68052283F83520E2
:102010007B681B681A687B681B6822F001021A60E3
:10202000BB680133BB607A699A4207D37B681B683F
:102030001B6803F00103002BF2D100E000BF7B68B6
:10204000012283F835207B68002283F834207B68E6
:10205000DB6C002B05D07B68DB6C7868984700E070
:1020600000BF1837BD4680BD80B485B000AFF860B2
:10207000B9607A603B60FB681B681A68FB681B6884
:1020800022F480221A60FB681B683A685A60FB6879
:102090009B68402B08D1FB681B687A689A60FB68D4
:1020A0001B68BA68DA6007E0FB681B68BA689A6068
:1020B000FB681B687A68DA6000BF1437BD465DF8BC
:1020C000047B704780B485B000AF78607B681B6884
:1020D000DBB2103B144AA2FB03231B09FB60134A2B
:1020E000FB6813441B781A467B68DA65FB68032B90
:1020F00009D97B681B6823F47F7323F003031A1D3F
:102100007B689A6507E07B681B6823F47F7323F084
:1021100003037A6893657B689B6D18461437BD4648
:102120005DF8047B704700BFABAAAAAAE8A6000826
:1021300080B485B000AF78600023FB737B689B6A36
:10214000BB607B689B69002B1FD1BB68032B56D8F3
:1021500001A252F823F000BF692100087B2100088A
:1021600069210008FF2100087B68DB6A03F08073A7
:10217000002B46D00123FB7343E07B68DB6AB3F19D
:10218000C07F40D10123FB733DE07B689B69B3F5C1
:10219000005F21D1BB68032B37D801A252F823F08E
:1021A000B1210008B7210008B1210008C9210008A9
:1021B0000123FB7330E07B68DB6A03F08073002B44
:1021C00025D00123FB7322E07B68DB6AB3F1C07F7B
:1021D0001FD10123FB731CE0BB68022B03D9BB6832
:1021E000032B03D018E00123FB7315E07B68DB6A47
:1021F00003F08073002B0ED00123FB730BE000BFB4
:102200000AE000BF08E000BF06E000BF04E000BF36
:1022100002E000BF00E000BFFB7B18461437BD465C
:102220005DF8047B704700BF80B489B000AF786070
:10223000396000237B6100233B610023BB610023E5
:10224000FB616BE10122FB6902FA03F37B613B68EE
:102250001B687A6913403B613A697B699A4240F096
:102260005A813B685B6803F00303012B05D03B6890
:102270005B6803F00303022B30D17B689B68BB6172
:10228000FB695B00032202FA03F3DB43BA691340E4
:10229000BB613B68DA68FB695B0002FA03F3BA6969
:1022A0001343BB617B68BA699A607B685B68BB61FA
:1022B0000122FB6902FA03F3DB43BA691340BB61F5
:1022C0003B685B681B0903F00102FB6902FA03F338
:1022D000BA691343BB617B68BA695A603B685B6843
:1022E00003F00303032B17D07B68DB68BB61FB693A
:1022F0005B00032202FA03F3DB43BA691340BB61BC
:102300003B689A68FB695B0002FA03F3BA691343FE
:10231000BB617B68BA69DA603B685B6803F0030302
:10232000022B23D1FB69DA087B68083253F822308C
:10233000BB61FB6903F007039B000F2202FA03F362
:10234000DB43BA691340BB613B681A69FB6903F060
:1023500007039B0002FA03F3BA691343BB61FB69ED
:10236000DA087B680832B96943F822107B681B6879
:10237000BB61FB695B00032202FA03F3DB43BA692A
:102380001340BB613B685B6803F00302FB695B00C1
:1023900002FA03F3BA691343BB617B68BA691A6036
:1023A0003B685B6803F44033002B00F0B4800023EB
:1023B000FB60604B5B6C5F4A43F4804353645D4B4E
:1023C0005B6C03F48043FB60FB685B4AFB699B0822
:1023D000023352F82330BB61FB6903F003039B0017
:1023E0000F2202FA03F3DB43BA691340BB617B6837
:1023F000524A93422BD07B68514A934225D07B6846
:10240000504A93421FD07B684F4A934219D07B6851
:102410004E4A934213D07B684D4A93420DD07B685D
:102420004C4A934207D07B684B4A934201D1072321
:102430000EE008230CE006230AE0052308E004234D
:1024400006E0032304E0022302E0012300E000236E
:10245000FA6902F0030292009340BA691343BB6128
:102460003549FB699B080233BA6941F823203B4B8D
:102470009B68BB613B69DB43BA691340BB613B6846
:102480005B6803F48013002B03D0BA693B691343E4
:10249000BB61324ABB699360304BDB68BB613B690F
:1024A000DB43BA691340BB613B685B6803F400130C
:1024B000002B03D0BA693B691343BB61274ABB6950
:1024C000D360264B5B68BB613B69DB43BA69134051
:1024D000BB613B685B6803F40033002B03D0BA692F
:1024E0003B691343BB611D4ABB6953601B4B1B68AF
:1024F000BB613B69DB43BA691340BB613B685B6806
:1025000003F48033002B03D0BA693B691343BB61EA
:10251000124ABB691360FB690133FB61FB690F2B36
:102520007FF690AE00BF00BF2437BD465DF8047B48
:10253000704700BF003802400038014000000240F0
:102540000004024000080240000C0240001002405B
:102550000014024000180240001C0240003C0140F0
:1025600080B485B000AF78600B467B807B681A69C9
:102570007B881340002B02D00123FB7301E0002372
:10258000FB73FB7B18461437BD465DF8047B704730
:1025900080B588B000AF78607B68002B01D1012343
:1025A00028E17B6893F84130DBB2002B09D17B68CE
:1025B000002283F840207B68904A5A637868FEF7CF
:1025C000D7FD7B68022283F841207B681B68DB69AA
:1025D0007A68126823F47B6323F00F03D3617B686E
:1025E0001B6802221A627B685B69022B60D07B68E1
:1025F000DB68002B02D110237B6101E020237B618B
:102600007B689B68202B02D87B695B007B61012083
:1026100001F052FAF8607B681B69B3F5007F25D1A1
:102620007B68DB68002B10D07B699B00FA68B2FBEB
:10263000F3F213469B0013445B001A467B685B6908
:10264000B2FBF3F305333B611FE07B69DB00FA6803
:10265000B2FBF3F213469B0013445B001A467B68FF
:102660005B69B2FBF3F305333B610EE0FA687B690B
:10267000B2FBF3F213469B0013445B001A467B68DF
:102680005B69B2FBF3F305333B613B695C4AA2FB38
:102690000323DB083B613B6903F00103BB613A693B
:1026A000BB69D31A5B08FB61BB691B02BB6103E01A
:1026B0000223FB610023BB61FB69012B02D9FB698B
:1026C000FF2B07D97B685B6C43F010027B685A6470
:1026D00001238FE07B681A69BB6942EA03017B68CA
:1026E0001B68FA690A431A627B681B68DB6923F47A
:1026F0007B6323F00F037A6851687A68926811430C
:102700007A68D26811437A6892690A431A437B68EF
:102710001B6842F40062DA617B681B6A012B61D19D
:102720007B68384A5A637B681B68374A934201D1F9
:10273000364B01E04FF04023DB697A68126832497A
:102740008A4201D1314A01E04FF0402223F47B63F9
:1027500023F00F03D3617B681B682B4A934201D19E
:102760002A4B01E04FF0402302221A627B681B686B
:10277000254A934201D1254B01E04FF04023DB690C
:102780007B817B685B68B3F5007F03D07B685B6807
:10279000002B03D14FF480733B6101E000233B61C8
:1027A0003B699AB27B689B689BB213439AB27B6881
:1027B000DB689BB213439AB27B689B699BB213435D
:1027C0009AB27B8913439BB243F400637B817B689D
:1027D0001B680D4A934201D10C4B01E04FF040239E
:1027E0007A89DA617B6800225A647B68012283F867
:1027F0004120002318462037BD4680BDE52A000849
:10280000CDCCCCCCF92B000800380040003400407F
:1028100080B586B000AFF860B9601346FB80BB6836
:10282000002B02D0FB88002B01D101238AE0FB683A
:1028300093F84130DBB2012B01D0022382E0FB6828
:1028400093F84030DBB2012B01D102237AE0FB6820
:10285000012283F84020FB68032283F84120FB68B3
:1028600000225A64FB68BA685A62FB681B68DB691D
:1028700003F007037B617B69032B02D07B69052B87
:102880000AD1FB885B009AB2FB681A85FB885B0063
:102890009AB2FB685A8505E0FB68FA881A85FB68DE
:1028A000FA885A85FB689B6B284A1A64FB689B6B05
:1028B000274ADA63FB689B6B264ADA64FB68986BED
:1028C000FB685B6A1946FB681B680C331A46FB6899
:1028D0001B8D9BB2FFF7E6F90346002B0FD0FB6878
:1028E0005B6C43F00802FB685A64FB68012283F8C2
:1028F0004120FB68002283F84020012322E0FB688E
:10290000002283F84020FB681B685B6803F0020329
:10291000002B07D1FB681B685A68FB681B6842F0F4
:1029200002025A60FB681B68DB6903F48063002BBA
:1029300007D1FB681B68DA69FB681B6842F4806298
:10294000DA61002318461837BD4680BDC329000848
:1029500081290008DF29000880B483B000AF7860C7
:1029600000BF0C37BD465DF8047B704780B483B070
:1029700000AF786000BF0C37BD465DF8047B704740
:1029800080B584B000AF78607B689B6BFB607B6830
:10299000DB69002B0ED1FB681B685A68FB681B685B
:1029A00022F002025A60FB6800225A85FB6801226D
:1029B00083F84120F868FEF70FFB00BF1037BD46D3
:1029C00080BD80B584B000AF78607B689B6BFB6096
:1029D000F868FEF7F1FA00BF1037BD4680BD80B53C
:1029E00084B000AF78607B689B6BFB60FB681B6802
:1029F0005A68FB681B6822F003025A60FB680022D9
:102A00005A85FB6800225A86FB68012283F8412020
:102A1000FB685B6C43F00802FB685A64F868FFF7D8
:102A2000A5FF00BF1037BD4680BD80B582B000AFA6
:102A300078607B685B6A1A887B681B68DA607B68F1
:102A40005B6A9A1C7B685A627B685B8D9BB2013B18
:102A50009AB27B685A857B685B8D9BB2002B0ED146
:102A60007B681B685A687B681B6822F0A0025A606A
:102A70007B68012283F841207868FEF7ADFA00BF39
:102A80000837BD4680BD80B582B000AF78607B68F6
:102A90001B68DA687B68DB6A92B21A807B68DB6A43
:102AA0009A1C7B68DA627B685B8E9BB2013B9AB2B0
:102AB0007B685A867B685B8E9BB2002B0ED17B684D
:102AC0001B685A687B681B6822F060025A607B684A
:102AD000012283F841207868FFF73EFF00BF0837E6
:102AE000BD4680BD80B586B000AF78607B681B684E
:102AF0009B687B617B6893F84130DBB2042B3AD151
:102B00007B6903F00103012B09D17B681B685B68BB
:102B100003F04003402B02D17868FFF7B4FF7B69D4
:102B200003F04003402B26D17B681B685B6803F0F1
:102B30002003202B1FD17B681B685A687B681B68A9
:102B400022F060025A6000233B617B681B68DB68EF
:102B50003B617B681B689B683B613B697B6801222A
:102B600083F841207B685B6C43F002027B685A6407
:102B70007868FFF7FBFE7B6893F84130DBB2032BEC
:102B800036D17B6903F00203022B09D17B681B68F5
:102B90005B6803F08003802B02D17868FFF745FF64
:102BA0007B6903F00803082B22D17B681B685B68F4
:102BB00003F02003202B1BD17B681B685A687B68BD
:102BC0001B6822F0A0025A600023FB607B681B6830
:102BD0009B68FB60FB687B68012283F841207B686F
:102BE0005B6C43F004027B685A647868FFF7BEFEB2
:102BF00000BF1837BD4680BD80B588B000AF786093
:102C00007B681B689B68FB617B681B68924A9342E8
:102C100001D1924B01E04FF040239B68BB617B6880
:102C20001B685B687B617B681B688B4A934201D1A0
:102C30008A4B01E04FF040235B683B617B685B6837
:102C4000B3F5007F04D07B685B68002B40F099806F
:102C5000FB6903F00203022B07D17B6903F08003B9
:102C6000002B02D0786800F025F9BB6903F001035E
:102C7000012B07D13B6903F04003002B02D0786899
:102C800000F0C8F9BB6903F04003402B3AD13B691F
:102C900003F02003002B35D07B681B686E4A9342FB
:102CA00001D16E4B01E04FF040235A687B681B68EE
:102CB00069498B4201D1694B01E04FF0402322F07A
:102CC00060025A607B681B685A687B681B6822F048
:102CD000A0025A600023FB607B681B68DB68FB6016
:102CE0007B681B689B68FB60FB687B68012283F83C
:102CF00041207B685B6C43F002027B685A64786811
:102D0000FFF734FEFB6903F00803082B40F0C38093
:102D10007B6903F02003002B00F0BD807B681B68FB
:102D20005A687B681B6822F0A0025A607B681B68A7
:102D3000494A934201D1494B01E04FF040235A6880
:102D40007B681B6844498B4201D1444B01E04FF042
:102D5000402322F060025A600023BB607B681B683E
:102D60009B68BB60BB687B68012283F841207B685D
:102D70005B6C43F004027B685A647868FFF7F6FDE9
:102D800089E0BB6903F00203022B07D13B6903F022
:102D90008003002B02D0786800F0BEF8FB6903F0D6
:102DA0000103012B07D17B6903F04003002B02D004
:102DB000786800F0FDF8FB6903F04003402B2FD149
:102DC0007B6903F02003002B2AD07B681B685A68BC
:102DD0007B681B6822F060025A607B681B681E4A91
:102DE000934201D11D4B01E04FF040235A687B68AC
:102DF0001B6819498B4201D1184B01E04FF0402369
:102E000022F0A0025A607B68012283F841207B688F
:102E10005B6C43F002027B685A647868FFF7A6FD9A
:102E2000BB6903F00803082B36D13B6903F020038C
:102E3000002B31D07B681B68074A934201D1074BB6
:102E400001E04FF040235A687B681B6802498B42BF
:102E500006D1024B06E000BF0038004000340040BD
:102E60004FF0402322F0A0025A607B681B685A682A
:102E70007B681B6822F060025A607B68012283F83D
:102E800041207B685B6C43F004027B685A6478687D
:102E9000FFF76CFD00E000BF00BF2037BD4680BDDE
:102EA00080B483B000AF786000BF0C37BD465DF8DA
:102EB000047B704780B582B000AF78607B685B6A46
:102EC000991C7A6851621A887B681B68DA607B6893
:102ED0005B8D9BB2013B9AB27B685A857B685B8DA8
:102EE0009BB2002B13D17B681B685A687B681B68F8
:102EF00022F0A0025A607B685B8E9BB2002B06D149
:102F00007B68012283F841207868FFF7C9FF00BF82
:102F10000837BD4680BD000080B582B000AF786044
:102F20007B685B6A991C7A68516219887B681B68A8
:102F30001D4A934201D11D4B01E04FF040230A4648
:102F4000DA607B685B8D9BB2013B9AB27B685A85E5
:102F50007B685B8D9BB2002B21D17B681B68124A7A
:102F6000934201D1114B01E04FF040235A687B6836
:102F70001B680D498B4201D10C4B01E04FF04023FF
:102F800022F0A0025A607B685B8E9BB2002B06D1B8
:102F90007B68012283F841207868FFF781FF00BF3A
:102FA0000837BD4680BD00BF0038004000340040F7
:102FB00080B582B000AF78607B681B68D8687B689A
:102FC000DB6A991C7A68D16282B21A807B685B8E58
:102FD0009BB2013B9AB27B685A867B685B8E9BB240
:102FE000002B13D17B681B685A687B681B6822F032
:102FF00060025A607B685B8D9BB2002B06D17B68B8
:10300000012283F841207868FFF74AFF00BF0837A4
:10301000BD4680BD80B582B000AF78607B681B681C
:10302000204A934201D1204B01E04FF04023D86861
:103030007B68DB6A991C7A68D16282B21A807B68ED
:103040005B8E9BB2013B9AB27B685A867B685B8E33
:103050009BB2002B21D17B681B68124A934201D19D
:10306000114B01E04FF040235A687B681B680D4903
:103070008B4201D10C4B01E04FF0402322F0600263
:103080005A607B685B8D9BB2002B06D17B68012266
:1030900083F841207868FFF703FF00BF0837BD467B
:1030A00080BD00BF003800400034004080B586B0CD
:1030B00000AF78607B68002B01D1012367E27B6859
:1030C0001B6803F00103002B75D0884B9B6803F04D
:1030D0000C03042B0CD0854B9B6803F00C03082BCE
:1030E00012D1824B5B6803F48003B3F5800F0BD1E0
:1030F0007E4B1B6803F40033002B5BD07B685B685E
:10310000002B57D1012342E27B685B68B3F5803F17
:1031100006D1764B1B68754A43F4803313601DE07B
:103120007B685B68B3F5A02F0CD1704B1B686F4AAE
:1031300043F4802313606D4B1B686C4A43F4803367
:1031400013600BE0694B1B68684A23F480331360FB
:10315000664B1B68654A23F4802313607B685B68B9
:10316000002B13D0FEF7AEFB386108E0FEF7AAFB98
:1031700002463B69D31A642B01D9032307E25B4B58
:103180001B6803F40033002BF0D014E0FEF79AFB29
:10319000386108E0FEF796FB02463B69D31A642BC0
:1031A00001D90323F3E1514B1B6803F40033002BD7
:1031B000F0D100E000BF7B681B6803F00203002B26
:1031C00063D04A4B9B6803F00C03002B0BD0474B9A
:1031D0009B6803F00C03082B1CD1444B5B6803F481
:1031E0008003002B16D1414B1B6803F00203002B18
:1031F00005D07B68DB68012B01D00123C7E13B4B85
:103200001B6823F0F8027B681B69DB003749134316
:103210000B603AE07B68DB68002B20D0344B012246
:103220001A60FEF74FFB386108E0FEF74BFB0246E1
:103230003B69D31A022B01D90323A8E12B4B1B684E
:1032400003F00203002BF0D0284B1B6823F0F80298
:103250007B681B69DB00254913430B6015E0244B99
:1032600000221A60FEF72EFB386108E0FEF72AFB09
:1032700002463B69D31A022B01D9032387E11B4B7A
:103280001B6803F00203002BF0D17B681B6803F07E
:103290000803002B36D07B685B69002B16D0154BDA
:1032A00001221A60FEF70EFB386108E0FEF70AFB08
:1032B00002463B69D31A022B01D9032367E10B4B6A
:1032C0005B6F03F00203002BF0D01BE0094B0022E0
:1032D0001A60FEF7F7FA38610EE0FEF7F3FA0246DD
:1032E0003B69D31A022B07D9032350E1003802406F
:1032F00000004742800E4742884B5B6F03F0020399
:10330000002BEAD17B681B6803F00403002B00F05C
:1033100097800023FB75814B1B6C03F08053002BBF
:103320000FD10023BB607D4B1B6C7C4A43F0805364
:1033300013647A4B1B6C03F08053BB60BB680123A2
:10334000FB75774B1B6803F48073002B18D1744B0B
:103350001B68734A43F480731360FEF7B3FA386155
:1033600008E0FEF7AFFA02463B69D31A022B01D9F7
:1033700003230CE16A4B1B6803F48073002BF0D02D
:103380007B689B68012B06D1644B1B6F634A43F03B
:10339000010313671CE07B689B68052B0CD15F4B16
:1033A0001B6F5E4A43F0040313675C4B1B6F5B4A61
:1033B00043F0010313670BE0584B1B6F574A23F090
:1033C00001031367554B1B6F544A23F00403136723
:1033D0007B689B68002B15D0FEF774FA38610AE011
:1033E000FEF770FA02463B69D31A41F288329342E3
:1033F00001D90323CBE0494B1B6F03F00203002BE1
:10340000EED014E0FEF75EFA38610AE0FEF75AFAF1
:1034100002463B69D31A41F28832934201D9032311
:10342000B5E03E4B1B6F03F00203002BEED1FB7D9A
:10343000012B05D1394B1B6C384A23F080531364A0
:103440007B689B69002B00F0A180344B9B6803F0E4
:103450000C03082B5CD07B689B69022B41D1314B5C
:1034600000221A60FEF72EFA386108E0FEF72AFA09
:1034700002463B69D31A022B01D9032387E0274B6D
:103480001B6803F00073002BF0D17B68DA697B685E
:103490001B6A1A437B685B6A9B011A437B689B6AC1
:1034A0005B08013B1B041A437B68DB6A1B061B4954
:1034B00013434B601B4B01221A60FEF703FA38617D
:1034C00008E0FEF7FFF902463B69D31A022B01D947
:1034D00003235CE0114B1B6803F00073002BF0D05A
:1034E00054E0104B00221A60FEF7ECF9386108E056
:1034F000FEF7E8F902463B69D31A022B01D90323F0
:1035000045E0064B1B6803F00073002BF0D13DE053
:103510007B689B69012B07D1012338E0003802400A
:1035200000700040600047421B4B5B68FB607B689B
:103530009B69012B28D0FB6803F480027B68DB6960
:103540009A4221D1FB6803F03F027B681B6A9A42D2
:103550001AD1FA6847F6C07313407A68526A92012A
:10356000934211D1FB6803F440327B689B6A5B088D
:10357000013B1B049A4207D1FB6803F070627B6831
:10358000DB6A1B069A4201D0012300E000231846A3
:103590001837BD4680BD00BF0038024080B584B0FA
:1035A00000AF786039607B68002B01D10123CCE04B
:1035B000684B1B6803F007033A689A420CD9654BC5
:1035C0003A68D2B21A70634B1B6803F007033A687B
:1035D0009A4201D00123B8E07B681B6803F0020324
:1035E000002B20D07B681B6803F00403002B05D060
:1035F000594B9B68584A43F4E05393607B681B68BF
:1036000003F00803002B05D0534B9B68524A43F448
:1036100060439360504B9B6823F0F0027B689B688B
:103620004D4913438B607B681B6803F00103002B3B
:1036300044D07B685B68012B07D1474B1B6803F4C0
:103640000033002B19D101237FE07B685B68022BDC
:1036500003D07B685B68032B07D13F4B1B6803F0EB
:103660000073002B09D101236FE03B4B1B6803F073
:103670000203002B01D1012367E0374B9B6823F045
:1036800003027B685B68344913438B60FEF71AF9C9
:10369000F8600AE0FEF716F90246FB68D31A41F219
:1036A0008832934201D903234FE02B4B9B6803F0F0
:1036B0000C027B685B689B009A42EBD1254B1B6830
:1036C00003F007033A689A420CD2224B3A68D2B20E
:1036D0001A70204B1B6803F007033A689A4201D026
:1036E000012332E07B681B6803F00403002B08D041
:1036F000194B9B6823F4E0527B68DB68164913433F
:103700008B607B681B6803F00803002B09D0124B09
:103710009B6823F460427B681B69DB000E491343FE
:103720008B6000F021F802460B4B9B681B0903F0ED
:103730000F030A49CB5C22FA03F3094A1360094BD1
:103740001B681846FEF77AF8002318461037BD4666
:1037500080BD00BF003C024000380240D8A60008EF
:1037600000000020040000202DE9B04F90B000AF11
:1037700000237B630023FB6300233B630023BB63C5
:10378000594B9B6803F00C03082B0DD0082B00F25B
:10379000A180002B02D0042B03D09BE0534BBB63D2
:1037A0009BE0534BBB6398E04F4B5B6803F03F03D8
:1037B0007B634D4B5B6803F48003002B28D04A4B9E
:1037C0005B689B0900223B627A623B6AC3F3080094
:1037D0000021474B03FB01F2002300FB03F31344DA
:1037E000434AA0FB0212FA620A46BA62FA6A13441A
:1037F000FB627B6B0022BB61FA61D7E90623D7E944
:103800000A01FDF721FA02460B461346FB6353E01B
:10381000354B5B689B0900223B617A613B69C3F3CE
:10382000080A4FF0000B52465B464FF000004FF085
:103830000001590141EAD261500102460B46B2EB48
:103840000A0863EB0B094FF000024FF000034FEA48
:10385000891343EA98634FEA8812B2EB080463EBDA
:1038600009054FF000024FF00003EB0043EA5473E8
:10387000E20014461D4614EB0A033B6045EB0B03C4
:103880007B604FF000024FF00003D7E90045294666
:103890008B02214643EA915321468A02104619467B
:1038A0007B6B0022BB60FA60D7E90223FDF7CCF9FD
:1038B00002460B461346FB630B4B5B681B0C03F085
:1038C000030301335B003B63FA6B3B6BB2FBF3F327
:1038D000BB6302E0054BBB6300BFBB6B18464037C0
:1038E000BD46BDE8B08F00BF003802400024F400A0
:1038F00040787D0180B586B000AF786000237B61A1
:1039000000233B617B681B6803F00103002B05D19A
:103910007B681B6803F00403002B35D0624B002248
:103920001A60FDF7CFFF786108E0FDF7CBFF024694
:103930007B69D31A022B01D90323B0E05B4B1B68D0
:1039400003F00063002BF0D17B685B689A017B6811
:103950009B681B0755491343C1F88430524B012221
:103960001A60FDF7AFFF786108E0FDF7ABFF024694
:103970007B69D31A022B01D9032390E04B4B1B68C0
:1039800003F00063002BF0D07B681B6803F0020398
:10399000002B00F083800023FB60444B1B6C434AE8
:1039A00043F080531364414B1B6C03F08053FB6066
:1039B000FB683F4B1B683E4A43F480731360FDF77E
:1039C00081FF786108E0FDF77DFF02467B69D31A2D
:1039D000022B01D9032362E0354B1B6803F480738B
:1039E000002BF0D0314B1B6F03F440733B613B69FC
:1039F000002B2FD07B68DB6803F440733A699A424E
:103A000028D02A4B1B6F23F440733B61294B0122C2
:103A10001A60284B00221A60244A3B691367234B23
:103A20001B6F03F00103012B14D1FDF74BFF7861ED
:103A30000AE0FDF747FF02467B69D31A41F288325C
:103A4000934201D903232AE0184B1B6F03F00203B2
:103A5000002BEED07B68DB6803F44073B3F5407F46
:103A60000DD1124B9B6823F4F8127B68DB6823F0BE
:103A7000704323F440730D4913438B6005E00B4BF7
:103A80009B680A4A23F4F8139360084B1A6F7B680B
:103A9000DB68C3F30B03054913430B670023184688
:103AA0001837BD4680BD00BF68004742003802405D
:103AB00000700040400E474280B487B000AF78608D
:103AC00000237B6100233B610023FB600023BB607C
:103AD0007B68012B3FD1244B9B6803F40003FB6000
:103AE000FB68002B06D0FB68B3F5000F2FD11F4BEE
:103AF0007B612FE01C4B5B6803F48003B3F5800F00
:103B000008D1194B5B6803F03F03194AB2FBF3F38A
:103B10003B6107E0144B5B6803F03F03154AB2FBBF
:103B2000F3F33B61104BD3F884309B09C3F30802D5
:103B30003B6902FB03F3BB600B4BD3F884301B0FD4
:103B400003F00703BA68B2FBF3F37B6102E00023E2
:103B50007B6100BF00E000BF7B6918461C37BD4693
:103B60005DF8047B704700BF003802400080BB0056
:103B700040787D010024F40080B582B000AF786009
:103B80007B68002B01D1012322E07B6893F834305D
:103B9000DBB2002B05D17B6800221A777868FDF72D
:103BA00065FC7B68032283F83420786800F014F801
:103BB0000346002B01D001230AE07B6800229A63B0
:103BC0007B6800221A637B68012283F8342000237B
:103BD00018460837BD4680BDB0B58EB004AF7860DA
:103BE0000023FB6000233B6100237B610023BB615A
:103BF0000023FB6176233B627B681D686C4607F1FE
:103C0000180393E8070084E8070007F10C030ECBC4
:103C1000284601F04BF92A4B00221A607B681B688A
:103C2000184601F08CF9264B01221A600220FDF79C
:103C300055FE786800F014FF78627B6A002B0BD089
:103C40007B68012283F834207B689A6B7B6A1A4375
:103C50007B689A6301232EE0786800F033FE786277
:103C60007B6A002B0BD07B68012283F834207B68B1
:103C70009A6B7B6A1A437B689A6301231BE07B681B
:103C80001B684FF40071184601F0EBF978627B6A0B
:103C9000002B0FD07B681B680A4A9A637B689A6B7B
:103CA0007B6A1A437B689A637B68012283F834201D
:103CB000012300E0002318462837BD46B0BD00BFF1
:103CC000A0802542FF05400080B592B000AFF860AB
:103CD000B9607A603B60FDF7F5FD38637B68BB63D4
:103CE000BB687B63BB68002B07D1FB689B6B43F011
:103CF0000062FB689A630123C5E1FB6893F83430E6
:103D0000DBB2012B40F0B881FB6800229A63BA6BEA
:103D10003B681A44FB68DB6D9A4207D9FB689B6BD2
:103D200043F00072FB689A630123ACE1FB68032255
:103D300083F83420FB681B680022DA62FB685B6C46
:103D4000012B02D0BB6B5B02BB634FF0FF337B6187
:103D50003B685B02BB619023FB6102233B62002353
:103D60007B620123BB62FB681B6807F114021146EA
:103D7000184601F04AF93B68012B0AD9FB68022278
:103D80001A63FB681B68B96B184601F0AEF97864DA
:103D900009E0FB6801221A63FB681B68B96B1846CF
:103DA00001F081F978647B6C002B12D0FB681B68F2
:103DB0007E4A9A63FB689A6B7B6C1A43FB689A6332
:103DC000FB68012283F83420FB6800221A63012378
:103DD00059E1BB69FB6361E0FB681B685B6B03F443
:103DE0000043002B3CD0FB6B002B39D000233B64FD
:103DF00033E0FB681B68184601F083F8F862FB6A41
:103E0000DAB27B6B1A707B6B01337B63FB6B013B1C
:103E1000FB63FB6A1B0ADAB27B6B1A707B6B0133A4
:103E20007B63FB6B013BFB63FB6A1B0CDAB27B6BB6
:103E30001A707B6B01337B63FB6B013BFB63FB6A9B
:103E40001B0EDAB27B6B1A707B6B01337B63FB6BEF
:103E5000013BFB633B6C01333B643B6C072BC8D9D4
:103E6000FDF730FD02463B6BD31A3A6D9A4202D9F8
:103E70003B6D002B12D1FB681B684C4A9A63FB68B0
:103E80009B6B43F00042FB689A63FB68012283F856
:103E90003420FB6800221A630323F4E0FB681B68EC
:103EA0005A6B40F22A331340002B95D0FB681B68F5
:103EB0005B6B03F48073002B22D03B68012B1FD96E
:103EC000FB685B6C032B1BD0FB681B68184601F07A
:103ED00073F978647B6C002B12D0FB681B68334A43
:103EE0009A63FB689A6B7B6C1A43FB689A63FB6866
:103EF000012283F83420FB6800221A630123C2E008
:103F0000FB681B685B6B03F00803002B06D1FB68A2
:103F10001B685B6B03F40073002B12D0FB681B68FB
:103F2000224A9A63FB689B6B43F00802FB689A6322
:103F3000FB68012283F83420FB6800221A63012306
:103F4000A1E0FB681B685B6B03F00203002B12D03F
:103F5000FB681B68154A9A63FB689B6B43F002027F
:103F6000FB689A63FB68012283F83420FB68002217
:103F70001A63012387E0FB681B685B6B03F0200377
:103F8000002B64D0FB681B68084A9A63FB689B6B34
:103F900043F02002FB689A63FB68012283F8342017
:103FA000FB6800221A6301236DE000BFFF0540009B
:103FB000FB681B68184600F0A4FFF862FB6ADAB2DF
:103FC0007B6B1A707B6B01337B63FB6B013BFB6389
:103FD000FB6A1B0ADAB27B6B1A707B6B01337B6363
:103FE000FB6B013BFB63FB6A1B0CDAB27B6B1A7049
:103FF0007B6B01337B63FB6B013BFB63FB6A1B0E3B
:10400000DAB27B6B1A707B6B01337B63FB6B013B1A
:10401000FB63FDF757FC02463B6BD31A3A6D9A429D
:1040200002D93B6D002B12D1FB681B68184A9A63BA
:10403000FB689B6B43F00042FB689A63FB680122BC
:1040400083F83420FB6800221A6301231BE0FB681D
:104050001B685B6B03F40013002B02D0FB6B002B7F
:10406000A6D1FB681B6840F23A529A63FB680122B2
:1040700083F83420002306E0FB689B6B43F000527A
:10408000FB689A63012318464837BD4680BD00BFD0
:10409000FF05400080B592B000AFF860B9607A606B
:1040A0003B60FDF70FFC38637B68BB63BB687B63D9
:1040B000BB68002B07D1FB689B6B43F00062FB6879
:1040C0009A6301236DE1FB6893F83430DBB2012B76
:1040D00040F06081FB6800229A63BA6B3B681A4427
:1040E000FB68DB6D9A4207D9FB689B6B43F000725B
:1040F000FB689A63012354E1FB68032283F83420B0
:10410000FB681B680022DA62FB685B6C012B02D043
:10411000BB6B5B02BB634FF0FF33BB613B685B0271
:10412000FB6190233B6200237B620023BB6201237F
:10413000FB62FB681B6807F118021146184600F085
:1041400064FF3B68012B0AD9FB6820221A63FB68D5
:104150001B68B96B184601F00CF8786409E0FB683D
:1041600010221A63FB681B68B96B184600F0DFFF6A
:1041700078647B6C002B12D0FB681B688B4A9A63B7
:10418000FB689A6B7B6C1A43FB689A63FB6801229D
:1041900083F83420FB6800221A63012301E1FB69E4
:1041A000FB6365E0FB681B685B6B03F48043002BDB
:1041B00040D0FB6B002B3DD000233B6437E07B6B92
:1041C0001B787B617B6B01337B63FB6B013BFB6388
:1041D0007B6B1B781A027B6913437B617B6B01331A
:1041E0007B63FB6B013BFB637B6B1B781A047B6976
:1041F00013437B617B6B01337B63FB6B013BFB6395
:104200007B6B1B781A067B6913437B617B6B0133E5
:104210007B63FB6B013BFB63FB681B6807F11402CC
:104220001146184600F07AFE3B6C01333B643B6C50
:10423000072BC4D9FDF746FB02463B6BD31A3A6DF8
:104240009A4202D93B6D002B12D1FB681B68574A7A
:104250009A63FB689A6B7B6C1A43FB689A63FB68F2
:10426000012283F83420FB6800221A63032398E0BC
:10427000FB681B685A6B40F21A331340002B91D035
:10428000FB681B685B6B03F48073002B22D03B68D8
:10429000012B1FD9FB685B6C032B1BD0FB681B68D1
:1042A000184600F089FF78647B6C002B12D0FB6805
:1042B0001B683E4A9A63FB689A6B7B6C1A43FB68E7
:1042C0009A63FB68012283F83420FB6800221A639A
:1042D000012366E0FB681B685B6B03F00803002B9F
:1042E00006D1FB681B685B6B03F40073002B12D0D4
:1042F000FB681B682D4A9A63FB689B6B43F00802BE
:10430000FB689A63FB68012283F83420FB68002273
:104310001A63012345E0FB681B685B6B03F0020333
:10432000002B12D0FB681B68204A9A63FB689B6BCA
:1043300043F00202FB689A63FB68012283F8342091
:10434000FB6800221A6301232BE0FB681B685B6B90
:1043500003F01003002B12D0FB681B68134A9A630A
:10436000FB689B6B43F01002FB689A63FB680122B9
:1043700083F83420FB6800221A63012311E0FB68F4
:104380001B6840F23A529A63FB68012283F834209A
:10439000002306E0FB689B6B43F00052FB689A63C6
:1043A000012318464837BD4680BD00BFFF054000C9
:1043B00080B483B000AF786039607B685B6E9B0F20
:1043C000DAB23B681A707B685B6E9B0EDBB203F05F
:1043D0000F03DAB23B685A707B685B6E1B0EDBB270
:1043E00003F00303DAB23B689A707B685B6E1B0CC8
:1043F000DAB23B68DA707B685B6E1B0ADAB23B6844
:104400001A717B685B6EDAB23B685A717B689B6E8F
:104410001B0D9AB23B68DA807B689B6E1B0CDBB28B
:1044200003F00F03DAB23B681A727B689B6EDB0BFA
:10443000DBB203F00103DAB23B685A727B689B6E11
:104440009B0BDBB203F00103DAB23B689A727B6824
:104450009B6E5B0BDBB203F00103DAB23B68DA72EE
:104460007B689B6E1B0BDBB203F00103DAB23B6887
:104470001A733B6800225A737B685B6C002B63D114
:104480007B689B6E9A0040F6FC7313407A68D26E8C
:10449000920F1A433B681A617B68DB6EDB0EDBB25E
:1044A00003F00703DAB23B681A757B68DB6E1B0EFC
:1044B000DBB203F00703DAB23B685A757B68DB6E48
:1044C0005B0DDBB203F00703DAB23B689A757B68D9
:1044D000DB6E9B0CDBB203F00703DAB23B68DA75E4
:1044E0007B68DB6EDB0BDBB203F00703DAB23B6801
:1044F0001A763B681B695A1C7B685A653B681B7EB1
:10450000DBB203F007030233012202FA03F37A68F5
:10451000526D03FB02F27B685A653B681B7ADBB283
:1045200003F00F0301229A407B689A657B685B6DFC
:104530007A68926D520A03FB02F27B68DA657B6847
:104540004FF400721A6631E07B685B6C012B1DD161
:104550007B689B6E1B0403F47C127B68DB6E1B0C78
:104560001A433B681A613B681B6901339A027B68F6
:104570005A657B685A6D7B68DA657B684FF4007218
:104580009A657B689A6D7B681A660FE07B681B688A
:10459000584A9A637B689B6B43F080527B689A63AE
:1045A0007B68012283F8342001239DE07B68DB6E69
:1045B0009B0BDBB203F00103DAB23B685A767B68EF
:1045C000DB6EDB09DBB203F07F03DAB23B689A767D
:1045D0007B68DB6EDBB203F07F03DAB23B68DA762E
:1045E0007B681B6FDB0FDAB23B681A777B681B6F47
:1045F0005B0FDBB203F00303DAB23B685A777B68E8
:104600001B6F9B0EDBB203F00703DAB23B689A77AD
:104610007B681B6F9B0DDBB203F00F03DAB23B68C4
:10462000DA777B681B6F5B0DDBB203F00103DAB254
:104630003B6883F820203B68002283F821207B68B8
:104640001B6F1B0CDBB203F00103DAB23B6883F88B
:1046500022207B681B6FDB0BDBB203F00103DAB2B5
:104660003B6883F823207B681B6F9B0BDBB203F056
:104670000103DAB23B6883F824207B681B6F5B0B75
:10468000DBB203F00103DAB23B6883F825207B68D4
:104690001B6F1B0BDBB203F00103DAB23B6883F83C
:1046A00026207B681B6F9B0ADBB203F00303DAB2A0
:1046B0003B6883F827207B681B6F1B0ADBB203F083
:1046C0000303DAB23B6883F828207B681B6F5B0822
:1046D000DBB203F07F03DAB23B6883F829203B6842
:1046E000012283F82A20002318460C37BD465DF8C6
:1046F000047B7047FF05400080B483B000AF786052
:1047000039607B685A6C3B681A607B689A6C3B68BE
:104710005A607B68DA6C3B689A607B681A6D3B680C
:10472000DA607B685A6D3B681A617B689A6D3B68FA
:104730005A617B68DA6D3B689A617B681A6E3B68E8
:10474000DA61002318460C37BD465DF8047B7047DC
:10475000B0B58EB004AF78603960002387F8273099
:104760007B68032283F834207B685B6C032B2ED09C
:104770003B68B3F5805F06D17B689B6B43F080524A
:104780007B689A6329E03B68B3F5006F0AD17868CB
:1047900000F01CFA38627B689A6B3B6A1A437B68AC
:1047A0009A631AE03B68002B0AD1786800F059FA46
:1047B00038627B689A6B3B6A1A437B689A630CE0A9
:1047C0007B689B6B43F000627B689A6305E07B68C3
:1047D0009B6B43F080527B689A637B689B6B002BDA
:1047E0000BD07B681B68264A9A637B68012283F89A
:1047F0003420012387F827301FE07B685B68BB60AB
:104800007B689B68FB607B68DB683B613B687B6126
:104810007B685B69BB617B689B69FB617B681D682A
:104820006C4607F1140393E8070084E8070007F1DA
:1048300008030ECB284600F039FB7B681B684FF459
:104840000071184600F00DFC38623B6A002B0CD05A
:104850007B681B680A4A9A637B689A6B3B6A1A43B7
:104860007B689A63012387F827307B68012283F8ED
:10487000342097F8273018462837BD46B0BD00BF12
:10488000FF05400080B586B000AF78600023FB6074
:1048900007F10C031946786800F070F978617B69BC
:1048A000002B05D07B689A6B7B691A437B689A63FF
:1048B000FB685B0A03F00F033B613B69184618373E
:1048C000BD4680BDB0B594B004AF78600123FB81D4
:1048D0007B681B68184600F040FB0346002B02D1A2
:1048E0004FF08063B8E07B685B6C032B2FD07B6854
:1048F0001B68184600F06AFDF863FB6B002B01D0C3
:10490000FB6BA9E07B681B680021184600F06AFB7E
:1049100002467B685A677B681B680421184600F0D2
:1049200061FB02467B689A677B681B680821184612
:1049300000F058FB02467B68DA677B681B680C2135
:10494000184600F04FFB02467B68C3F880207B6866
:104950005B6C032B0DD07B681B6807F10E021146C0
:10496000184600F070FDF863FB6B002B01D0FB6B69
:1049700072E07B685B6C032B36D0FB891A467B6840
:104980001A657B681A687B681B6D1B041946104604
:1049900000F03AFDF863FB6B002B01D0FB6B5BE092
:1049A0007B681B680021184600F01CFB02467B68F0
:1049B0005A667B681B680421184600F013FB024608
:1049C0007B689A667B681B680821184600F00AFB22
:1049D00002467B68DA667B681B680C21184600F08B
:1049E00001FB02467B681A677B681B680421184636
:1049F00000F0F8FA03461A0D7B68DA6407F1100339
:104A000019467868FFF7D4FC0346002B02D04FF01C
:104A1000805321E07B6819687B681B6D1B040022B2
:104A20001C46154622462B46084600F0E7FBF86375
:104A3000FB6B002B01D0FB6B0EE07B681D687B6875
:104A40006C4603F1100207CA84E8070004330ECB5A
:104A5000284600F02BFA002318464037BD46B0BD6B
:104A600080B586B000AF78600023BB6000237B6117
:104A700000233B617B681B68184600F0E2FBF8608E
:104A8000FB68002B01D0FB6872E07B681B6818464E
:104A900000F0F5FBF860FB68002B0DD07B6800226E
:104AA0009A647B681B68184600F0CBFBF860FB68D3
:104AB000002B04D0FB685BE07B6801229A647B6872
:104AC0009B6C012B37D17B681B680021184600F0D6
:104AD000F5FBF860FB68002B2DD04FF0805347E0CA
:104AE0007B681B680021184600F0E8FBF860FB6853
:104AF000002B01D0FB683BE07B681B681E49184611
:104B000000F0FEFBF860FB68002B02D04FF08053F2
:104B10002EE07B681B680021184600F063FA78617C
:104B20007B69DB0F012B01D1012300E000233B61F6
:104B3000BB680133BB60BB684FF6FE72934202D87C
:104B40003B69002BCCD0BB684FF6FE72934202D972
:104B50004FF080730CE07B6903F08043002B03D09F
:104B60007B6801225A6402E07B6800225A640023B9
:104B700018461837BD4680BD000010C180B584B00E
:104B800000AF786039603B68002B02D14FF00063C2
:104B900018E07B681A687B681B6D1B041946104679
:104BA00000F072FCF860FB68002B01D0FB6809E0A4
:104BB0007B681B680021184600F014FA02463B6827
:104BC0001A60002318461037BD4680BD80B586B0F8
:104BD00000AF78600023FB6000233B617B681B68AB
:104BE0000021184600F0FEF9034603F00073B3F10C
:104BF000007F02D14FF400632FE007F10C03194648
:104C0000786800F079F878617B69002B01D07B69C6
:104C100023E03B6903F48023002B1CD07B681A68D7
:104C20007B681B6D1B041946104600F047FB78613A
:104C30007B69002B01D07B690FE07B681B68022138
:104C4000184600F080FB78617B69002B01D07B69FE
:104C500003E0002301E04FF0806318461837BD469B
:104C600080BD80B586B000AF78600023FB60002374
:104C70003B617B681B680021184600F0B3F90346CE
:104C800003F00073B3F1007F02D14FF400632FE013
:104C900007F10C031946786800F02EF878617B69FB
:104CA000002B01D07B6923E03B6903F48033002BA8
:104CB0001CD07B681A687B681B6D1B041946104664
:104CC00000F0FCFA78617B69002B01D07B690FE072
:104CD0007B681B680021184600F035FB78617B6912
:104CE000002B01D07B6903E0002301E04FF08063DB
:104CF00018461837BD4680BD90B58FB000AF7860BC
:104D00003960FCF7DFFD386300237B630023BB6061
:104D10000023FB603B68FB627B681B680821184628
:104D200000F09FF9B862BB6A002B01D0BB6AB9E002
:104D30007B681A687B681B6D1B041946104600F0DF
:104D4000BDFAB862BB6A002B01D0BB6AAAE04FF083
:104D5000FF333B6108237B613023BB610223FB618E
:104D600000233B6201237B627B681B6807F1100212
:104D70001146184600F049F97B681B68184600F098
:104D800004FBB862BB6A002B2AD0BB6A8AE07B684E
:104D90001B685B6B03F40013002B0FD07B68196852
:104DA0007B6B9B0007F10802D418084600F0A9F8B5
:104DB000034623607B6B01337B6306E07B681B68E3
:104DC0005B6B03F40053002B12D0FCF77BFD024613
:104DD0003B6BD31AB3F1FF3F02D14FF0004361E0C8
:104DE0007B681B685B6B03F02A03002BCFD000E0CD
:104DF00000BF7B681B685B6B03F00803002B06D1C8
:104E00007B681B685B6B03F40073002B05D07B6829
:104E10001B6808229A63082344E07B681B685B6B6D
:104E200003F00203002B05D07B681B6802229A6303
:104E3000022337E07B681B685B6B03F02003002BC9
:104E400005D07B681B6820229A6320232AE07B68B8
:104E50001B6840F23A529A63FB681A06FB681B0211
:104E600003F47F031A43FB681B0A03F47F431A43CE
:104E7000FB681B0E1A43FB6A1A60FB6A0433FB6271
:104E8000BB681A06BB681B0203F47F031A43BB68A6
:104E90001B0A03F47F431A43BB681B0E1A43FB6AC9
:104EA0001A60002318463C37BD4690BD84B080B4DC
:104EB00085B000AF786007F11C0080E80E00002389
:104EC000FB60FA693B6A1A437B6A1A43BB6A1A435E
:104ED000FB6A1A433B6B1343FA681343FB607B681E
:104EE0005B6823F4FD4323F07F03FA681A437B6871
:104EF0005A60002318461437BD465DF8047B04B0A1
:104F0000704780B483B000AF78607B68D3F880309E
:104F100018460C37BD465DF8047B704780B483B0FB
:104F200000AF786039603B681A687B68C3F88020FE
:104F3000002318460C37BD465DF8047B704780B4EB
:104F400083B000AF78607B6803221A6000231846A4
:104F50000C37BD465DF8047B704780B483B000AF6A
:104F600078607B681B6803F0030318460C37BD4666
:104F70005DF8047B704780B485B000AF786039601D
:104F80000023FB603B681A687B689A603B685A683C
:104F90003B689B681A433B68DB681A433B681B69A4
:104FA0001343FA681343FB607B68DB6823F47F6379
:104FB00023F00F03FA681A437B68DA60002318466F
:104FC0001437BD465DF8047B704780B483B000AFF2
:104FD00078607B681B69DBB218460C37BD465DF80C
:104FE000047B704780B485B000AF786039607B681F
:104FF00014331A463B681344FB60FB681B68184671
:105000001437BD465DF8047B704780B485B000AFAF
:10501000786039600023FB603B681A687B685A62DD
:105020003B685A687B689A623B689A683B68DB68B1
:105030001A433B681B691A433B685B691343FA6870
:105040001343FB607B68DB6A23F0F702FB681A43BB
:105050007B68DA62002318461437BD465DF8047B8E
:10506000704780B588B000AF786039603B68BB603E
:105070001023FB6040233B6100237B614FF480637E
:10508000BB6107F1080319467868FFF774FF41F226
:1050900088321021786800F019FAF861FB69184627
:1050A0002037BD4680BD80B588B000AF78603960DC
:1050B0003B68BB601123FB6040233B6100237B61A5
:1050C0004FF48063BB6107F1080319467868FFF766
:1050D00052FF41F288321121786800F0F7F9F86147
:1050E000FB6918462037BD4680BD80B588B000AF4B
:1050F000786039603B68BB601223FB6040233B61F2
:1051000000237B614FF48063BB6107F108031946FC
:105110007868FFF730FF41F288321221786800F09A
:10512000D5F9F861FB6918462037BD4680BD80B5CA
:1051300088B000AF786039603B68BB601823FB60C3
:1051400040233B6100237B614FF48063BB6107F127
:10515000080319467868FFF70EFF41F288321821DC
:10516000786800F0B3F9F861FB6918462037BD464E
:1051700080BD80B588B000AF786039603B68BB60A7
:105180001923FB6040233B6100237B614FF4806364
:10519000BB6107F1080319467868FFF7ECFE41F29E
:1051A00088321921786800F091F9F861FB69184696
:1051B0002037BD4680BD000080B588B000AF786064
:1051C0000023BB600C23FB6040233B6100237B6119
:1051D0004FF48063BB6107F1080319467868FFF755
:1051E000CAFE054A0C21786800F070F9F861FB6985
:1051F00018462037BD4680BD00E1F50580B58AB070
:1052000000AFF860C7E900233B683B6107237B617F
:105210004023BB610023FB614FF480633B6207F1D5
:1052200010031946F868FFF7A6FE41F288320721FD
:10523000F86800F04BF978627B6A18462837BD465B
:1052400080BD80B588B000AF78600023BB600023CC
:10525000FB6000233B6100237B614FF48063BB61F3
:1052600007F1080319467868FFF785FE786800F0B3
:1052700065FBF861FB6918462037BD4680BD80B5E7
:1052800088B000AF78604FF4D573BB600823FB6033
:1052900040233B6100237B614FF48063BB6107F1D6
:1052A000080319467868FFF766FE786800F0F8FA98
:1052B000F861FB6918462037BD4680BD80B588B0CF
:1052C00000AF786039603B68BB603723FB604023E8
:1052D0003B6100237B614FF48063BB6107F10803EE
:1052E00019467868FFF747FE41F28832372178681F
:1052F00000F0ECF8F861FB6918462037BD4680BD28
:1053000080B588B000AF786039603B6843F00043F7
:1053100043F48013BB602923FB6040233B610023DF
:105320007B614FF48063BB6107F10803194678681D
:10533000FFF721FE786800F0FFF9F861FB69184675
:105340002037BD4680BD80B588B000AF7860396039
:105350003B68BB600623FB6040233B6100237B610D
:105360004FF48063BB6107F1080319467868FFF7C3
:1053700002FE41F288320621786800F0A7F8F86151
:10538000FB6918462037BD4680BD80B588B000AFA8
:1053900078600023BB603323FB6040233B61002324
:1053A0007B614FF48063BB6107F10803194678689D
:1053B000FFF7E1FD41F288323321786800F086F88A
:1053C000F861FB6918462037BD4680BD80B588B0BE
:1053D00000AF78600023BB600223FB60C0233B6109
:1053E00000237B614FF48063BB6107F1080319461A
:1053F0007868FFF7C0FD786800F056F9F861FB693E
:1054000018462037BD4680BD80B588B000AF7860B3
:1054100039603B68BB600923FB60C0233B6100230C
:105420007B614FF48063BB6107F10803194678681C
:10543000FFF7A1FD786800F037F9F861FB691846BD
:105440002037BD4680BD80B588B000AF7860396038
:105450000023BB600323FB6040233B6100237B618F
:105460004FF48063BB6107F1080319467868FFF7C2
:1054700082FD3A680321786800F09CF9F861FB69C5
:1054800018462037BD4680BD80B588B000AF786033
:1054900039603B68BB600D23FB6040233B61002308
:1054A0007B614FF48063BB6107F10803194678689C
:1054B000FFF761FD41F288320D21786800F006F8AF
:1054C000F861FB6918462037BD4680BD80B588B0BD
:1054D00000AFF8600B467A60FB72704B1B68704A35
:1054E000A2FB03235A0A7B6802FB03F3FB61FB69FF
:1054F0005A1EFA61002B02D14FF00043C9E0FB684D
:105500005B6BBB61BB6903F04503002BEFD0BB694C
:1055100003F40063002BEAD1FB685B6B03F0040328
:10552000002B04D0FB6804229A630423B1E0FB68DB
:105530005B6B03F00103002B04D0FB6801229A632C
:105540000123A6E0FB68C5229A63F868FFF73DFDDA
:1055500003461A46FB7A934201D0012399E00021C9
:10556000F868FFF73FFD78617A694E4B1340002BD6
:1055700001D100238DE07B69002B02DA4FF000732C
:1055800087E07B6903F08043002B01D0402380E05B
:105590007B6903F00053002B01D0802379E07B6905
:1055A00003F08053002B02D04FF4807371E07B69CD
:1055B00003F00063002B02D04FF4007369E07B69B5
:1055C00003F08063002B02D04FF4806361E07B69BD
:1055D00003F08073002B02D04FF4006359E07B6925
:1055E00003F40003002B02D04FF4805351E07B6999
:1055F00003F48003002B02D04FF4005349E07B6991
:1056000003F40013002B02D04FF4804341E07B6988
:1056100003F48013002B02D04FF4004339E07B6980
:1056200003F48023002B02D04FF4003331E07B6978
:1056300003F40033002B02D04FF4802329E07B6970
:1056400003F48033002B02D04FF4002321E07B6968
:1056500003F40043002B02D04FF4801319E07B6960
:1056600003F48043002B02D04FF4001311E07B6958
:1056700003F40053002B02D04FF4800309E07B6950
:1056800003F00803002B02D04FF4000301E04FF4B5
:10569000803318462037BD4680BD00BF0000002083
:1056A000D34D621008E0FFFD80B485B000AF786094
:1056B0001F4B1B681F4AA2FB03235B0A41F288327F
:1056C00002FB03F3FB60FB685A1EFA60002B02D159
:1056D0004FF0004326E07B685B6BBB60BB6803F068
:1056E0004503002BEFD0BB6803F40063002BEAD125
:1056F0007B685B6B03F00403002B04D07B680422FF
:105700009A6304230EE07B685B6B03F00103002BBC
:1057100004D07B6801229A63012303E07B68C522E1
:105720009A63002318461437BD465DF8047B704722
:1057300000000020D34D621080B485B000AF7860C7
:105740001A4B1B681A4AA2FB03235B0A41F28832F8
:1057500002FB03F3FB60FB685A1EFA60002B02D1C8
:105760004FF000431BE07B685B6BBB60BB6803F0E2
:105770004503002BEFD0BB6803F40063002BEAD194
:105780007B685B6B03F00403002B04D07B6804226E
:105790009A63042303E07B68C5229A6300231846BA
:1057A0001437BD465DF8047B704700BF0000002041
:1057B000D34D621080B588B000AFF8600B467A60B8
:1057C000FB72354B1B68354AA2FB03235B0A41F28F
:1057D000883202FB03F3FB61FB695A1EFA61002B5E
:1057E00002D14FF0004352E0FB685B6BBB61BB69C9
:1057F00003F04503002BEFD0BB6903F40063002BDB
:10580000EAD1FB685B6B03F00403002B04D0FB6858
:1058100004229A6304233AE0FB685B6B03F0010304
:10582000002B04D0FB6801229A6301232FE0F86863
:10583000FFF7CBFB03461A46FB7A934201D00123C4
:1058400025E0FB68C5229A630021F868FFF7CAFBD0
:1058500078617B6903F46043002B06D17B691B0CE4
:105860009AB27B681A80002311E07B6903F48043BD
:10587000002B02D04FF4005309E07B6903F400438E
:10588000002B02D04FF4805301E04FF480331846D0
:105890002037BD4680BD00BF00000020D34D621000
:1058A00080B485B000AF7860224B1B68224AA2FB0F
:1058B00003235B0A41F2883202FB03F3FB60FB68BF
:1058C0005A1EFA60002B02D14FF000432CE07B6897
:1058D0005B6BBB60BB6803F04503002BEFD0BB687C
:1058E00003F40063002BEAD17B685B6B03F00403D5
:1058F000002B04D07B6804229A63042314E07B68A5
:105900005B6B03F00103002B04D07B6801229A63D8
:10591000012309E07B685B6B03F04003002B02D09E
:105920007B6840229A63002318461437BD465DF811
:10593000047B704700000020D34D621080B485B016
:1059400000AF7860114B1B68114AA2FB03235B0A6E
:1059500041F2883202FB03F3FB60FB685A1EFA60D7
:10596000002B02D14FF0004309E07B685B6B03F032
:105970008003002BF1D07B68C5229A630023184670
:105980001437BD465DF8047B704700BF000000205F
:10599000D34D621080B500AF0449054800F0E4F92A
:1059A00003461A46034B1A7000BF80BD1C2300201B
:1059B000F0A600081823002080B582B000AF0023B5
:1059C000FB7100F079F80346012B01D0012312E0AE
:1059D0000B48FEF7D1F80346FB71FB79002B09D188
:1059E0004FF400610648FEF7B3FE0346002B01D0DA
:1059F0000123FB71FB7918460837BD4680BD00BF07
:105A00008C22002080B588B002AFF860B9607A605F
:105A10003B600023FB753B6800937B68BA68F968BC
:105A20000648FEF751F90346002B01D00123FB7510
:105A3000FB7D18461837BD4680BD00BF8C22002074
:105A400080B588B002AFF860B9607A603B6000232F
:105A5000FB753B6800937B68BA68F9680648FEF7F7
:105A600019FB0346002B01D00123FB75FB7D184673
:105A70001837BD4680BD00BF8C22002080B500AF26
:105A80000548FEF7FFFE0346042B14BF0123002345
:105A9000DBB2184680BD00BF8C22002080B582B0EA
:105AA00000AF786079680348FEF726FE00BF08372C
:105AB000BD4680BD8C22002080B582B000AF01239E
:105AC000FB7100F00BF80346002B01D10023FB71A2
:105AD000FB79DBB218460837BD4680BD80B582B081
